:100000000C9434000C9451000C9451000C94510049
:100010000C9451000C9451000C9451000C9451001C
:100020000C9451000C9451000C9451000C9451000C
:100030000C9451000C9451000C9451000C945100FC
:100040000C9451000C9451000C9451000C945100EC
:100050000C9451000C9451000C9451000C945100DC
:100060000C9451000C94510011241FBECFEFD8E026
:10007000DEBFCDBF11E0A0E0B1E0EAE3F6E002C0F0
:1000800005900D92A631B107D9F721E0A6E1B1E0C4
:1000900001C01D92AD31B207E1F70E9403030C9439
:1000A0001B030C940000FB0121E030E0B90102C009
:1000B000660F771F8A95E2F7CB019081411104C04A
:1000C0008095892380830895892BFCCFFB012081B3
:1000D00030E0A90102C0559547958A95E2F7CA011B
:1000E000817008955B9808955B9A0895CF93DF938C
:1000F000C82FD62F6623E1F15A9AC7FF3BC05F9AFB
:10010000C6FF3AC05E9AC5FF39C05D9AC4FF38C0C9
:100110005C9A00C00E94740082E08A95F1F700C0EA
:100120000E947200C3FF2EC05F9AC2FF2DC05E9A6C
:10013000C1FF2CC05D9AC0FF2BC05C9A00C00E941A
:10014000740092E09A95F1F700C00E9472005F9AE5
:100150005E9A5D9A5C9AD1111DC0C430D8F48FE9C3
:1001600099E10197F1F700C00000DF91CF91089568
:100170005A98C3CF5F98C4CF5E98C5CF5D98C6CF5D
:100180005C98C7CF5F98D1CF5E98D2CF5D98D3CF20
:100190005C98D4CF95ED9A95F1F7E6CF60E00C949A
:1001A000760080580C94CE00611103C080580C94E6
:1001B000CE008054FCCF81E00C94CE0082E00C9401
:1001C000CE0061E00C947600CF93DF93EC0189912F
:1001D000811103C0DF91CF9108950E94E100F7CF14
:1001E000CF93DF93EC01FE0184912196811103C02E
:1001F000DF91CF9108950E94E100F5CF539A529A72
:10020000579A569A559A549A0E9472005A985F9A31
:100210005E9A5D9A5C9A8FE59AEE0197F1F700C0BD
:1002200000005F985E9800C00E94740092E09A956A
:10023000F1F700C00E9472008FE090E40197F1F79F
:1002400000C000000E94740092E09A95F1F700C08F
:100250000E9472008FE891E00197F1F700C0000062
:100260000E94740092E09A95F1F700C00E9472001B
:1002700085ED8A95F1F700005C9800C00E9474003B
:1002800092E09A95F1F700C00E94720085ED8A9580
:10029000F1F700005C9800C00E94740092E09A950B
:1002A000F1F700C00E94720082E08A95F1F700C069
:1002B0005F9A00C00E94740092E09A95F1F700C026
:1002C0000E94720085ED8A95F1F7000088E00E9497
:1002D000CE000E94DB0086E00E94CE008CE00C94F1
:1002E000CE00EAE1F1E0108211821282E7E1F1E052
:1002F00080E180838183828308958330C1F180F41B
:10030000813089F1823049F143E06AE171E082E8AD
:100310000E94FD0243E067E171E082E90C94FD0276
:10032000853069F140F1863079F780930001809142
:100330001A018D7E886880931A01809117018D7F44
:10034000816080931701809118018F7B8068809372
:100350001801809119018F7D03C0809119018F7759
:1003600080931901D1CF809119018068F9CF8091D4
:1003700019018F7EF5CF809119018061F1CF8093B3
:10038000000180911A018F778A6180931A01809110
:1003900017018E7F826080931701809118018F77FB
:1003A000806480931801809119018062D9CFCF9326
:1003B000DF9320910001253021F0263049F181E0C2
:1003C00024C0EC01C559DF4F83E00E947D0180917C
:1003D0001A018B7F80931A01D0931B01C0931C01DB
:1003E00043E06AE171E082E80E94FD0280911A0117
:1003F000846080931A0143E06AE171E082E80E9420
:10040000FD0284E00E947D0180E0DF91CF9108959C
:10041000EC01AD9684E0CC0FDD1F8A95E1F7D4CFD7
:10042000389A3998419A3A9A3B9A43984298409A16
:100430008FE891E00197F1F700C0000040988FE845
:1004400091E00197F1F700C0000008950F931F930A
:10045000CF93DF93D0E0C0E0082F10E0A8010C2E6E
:1004600002C0559547950A94E2F7417068E270E042
:1004700083E00E94530041E068E270E082E00E9465
:1004800053008FE891E00197F1F700C0000040E0D1
:1004900068E270E082E00E9453008FE891E00197EB
:1004A000F1F700C000002196C830D105B9F6DF9100
:1004B000CF911F910F910895CF92DF92EF92FF920B
:1004C0000F931F93CF9307E010E0C0E0C12CD12C15
:1004D0007601C39441E068E270E082E00E9453003C
:1004E0008FE891E00197F1F700C0000066E270E04C
:1004F00081E00E946600B701A601002E04C0440FEF
:10050000551F661F771F0A94D2F78823C9F0C42BA2
:1005100040E068E270E082E00E9453008FE891E0E2
:100520000197F1F700C000000150110998F68C2FD7
:10053000CF911F910F91FF90EF90DF90CF90089592
:100540004095C423E5CFEF92FF920F931F93CF9373
:10055000DF937B01C42FD22F82950E94260240E0B8
:1005600068E270E082E00E94530041E068E270E0DF
:1005700080E00E9453008FE891E00197F1F700C0FE
:100580000000DD2371F0D130C1F4DE2D8701802F12
:100590008D1B8C1794F40E945C02F80181938F01EB
:1005A000F6CFC1500C2E000CDD0BC7FF19C040E088
:1005B00068E270E083E00E94530040E068E270E08F
:1005C00080E00E9453008FE891E00197F1F700C0AE
:1005D0000000DF91CF911F910F91FF90EF90089550
:1005E000F701EC0FFD1F80810E9426022197DDCFCD
:1005F00066E270E081E00C94660020E00C94A302B7
:1006000021E00C94A3020E94FE000E94DB000E94E5
:10061000DE0085E091E00E94E4000E94100285E087
:100620000E947D0180910301909104010E94D701F5
:0A06300080931601FFCFF894FFCF6E
:10063A00054900D2035468697320697320612074E4
:06064A006573742100003D
:00000001FF
