:100000000C9434000C9451000C9451000C94510049
:100010000C9451000C9451000C9451000C9451001C
:100020000C9451000C9451000C9451000C9451000C
:100030000C9451000C9451000C9451000C945100FC
:100040000C9451000C9451000C9451000C945100EC
:100050000C9451000C9451000C9451000C945100DC
:100060000C9451000C94510011241FBECFEFD8E026
:10007000DEBFCDBF11E0A0E0B1E0E0EDF6E002C0F0
:1000800005900D92A631B107D9F721E0A6E1B1E0C4
:1000900001C01D92AD31B207E1F70E942B030C9411
:1000A00066030C940000FB0121E030E0B90102C0BE
:1000B000660F771F8A95E2F7CB019081411104C04A
:1000C0008095892380830895892BFCCFFB012081B3
:1000D00030E0A90102C0559547958A95E2F7CA011B
:1000E000817008955B9808955B9A0895CF93DF938C
:1000F000C82FD62F6623E1F15A9AC7FF3BC05F9AFB
:10010000C6FF3AC05E9AC5FF39C05D9AC4FF38C0C9
:100110005C9A00C00E94740082E08A95F1F700C0EA
:100120000E947200C3FF2EC05F9AC2FF2DC05E9A6C
:10013000C1FF2CC05D9AC0FF2BC05C9A00C00E941A
:10014000740092E09A95F1F700C00E9472005F9AE5
:100150005E9A5D9A5C9AD1111DC0C430D8F48FE9C3
:1001600099E10197F1F700C00000DF91CF91089568
:100170005A98C3CF5F98C4CF5E98C5CF5D98C6CF5D
:100180005C98C7CF5F98D1CF5E98D2CF5D98D3CF20
:100190005C98D4CF95ED9A95F1F7E6CF60E00C949A
:1001A000760080580C94CE00611103C080580C94E6
:1001B000CE008054FCCF81E00C94CE0082E00C9401
:1001C000CE0061E00C947600CF93DF93EC0189912F
:1001D000811103C0DF91CF9108950E94E100F7CF14
:1001E000CF93DF93EC01FE0184912196811103C02E
:1001F000DF91CF9108950E94E100F5CF539A529A72
:10020000579A569A559A549A0E9472005A985F9A31
:100210005E9A5D9A5C9A8FE59AEE0197F1F700C0BD
:1002200000005F985E9800C00E94740092E09A956A
:10023000F1F700C00E9472008FE090E40197F1F79F
:1002400000C000000E94740092E09A95F1F700C08F
:100250000E9472008FE891E00197F1F700C0000062
:100260000E94740092E09A95F1F700C00E9472001B
:1002700085ED8A95F1F700005C9800C00E9474003B
:1002800092E09A95F1F700C00E94720085ED8A9580
:10029000F1F700005C9800C00E94740092E09A950B
:1002A000F1F700C00E94720082E08A95F1F700C069
:1002B0005F9A00C00E94740092E09A95F1F700C026
:1002C0000E94720085ED8A95F1F7000088E00E9497
:1002D000CE000E94DB0086E00E94CE008CE00C94F1
:1002E000CE00EAE1F1E0108211821282E7E1F1E052
:1002F00080E18083818380E2828308958330C1F12D
:1003000080F4813089F1823049F143E06AE171E0A3
:1003100082E80E94250343E067E171E082E90C94E2
:100320002503853069F140F1863079F7809300012B
:1003300080911A018D7E806880931A018091170147
:100340008D7F816080931701809118018F7B806879
:100350008093180180911901806103C08091190177
:100360008F7B80931901D1CF809119018064F9CFDF
:10037000809119018F7DF5CF809119018062F1CFB5
:100380008093000180911A018F778A6180931A010E
:10039000809117018E7F82608093170180911801F0
:1003A0008F77806480931801809119018F7ED9CF57
:1003B0000F931F93CF93DF9300D01F92CDB7DEB77B
:1003C00020910001253029F0263009F448C081E051
:1003D0003EC08C0105591F4F83E00E947E01809131
:1003E0001A018B7F80931A0110931B0100931C014B
:1003F00043E06AE171E082E80E94250380911A01DE
:10040000846080931A0143E06AE171E082E80E940F
:10041000250312E38FE39CE90197F1F700C0000088
:1004200043E0BE016F5F7F4F82EA0E94280343E0F2
:10043000BE016F5F7F4F82EA0E942803898184FD9D
:1004400002C0115039F784E00E947E0180E00F90D5
:100450000F900F90DF91CF911F910F9108958C0114
:10046000035D1F4F84E0000F111F8A95E1F7B4CFA1
:10047000389A3998419A3A9A3B9A43984298409AC6
:100480008FE891E00197F1F700C0000040988FE8F5
:1004900091E00197F1F700C0000008950F931F93BA
:1004A000CF93DF93D0E0C0E0082F10E0A8010C2E1E
:1004B00002C0559547950A94E2F7417068E270E0F2
:1004C00083E00E94530041E068E270E082E00E9415
:1004D00053008FE891E00197F1F700C0000040E081
:1004E00068E270E082E00E9453008FE891E001979B
:1004F000F1F700C000002196C830D105B9F6DF91B0
:10050000CF911F910F910895CF92DF92EF92FF92BA
:100510000F931F93CF9307E010E0C0E0C12CD12CC4
:100520007601C39441E068E270E082E00E945300EB
:100530008FE891E00197F1F700C0000066E270E0FB
:1005400081E00E946600B701A601002E04C0440F9E
:10055000551F661F771F0A94D2F78823C9F0C42B52
:1005600040E068E270E082E00E9453008FE891E092
:100570000197F1F700C000000150110998F68C2F87
:10058000CF911F910F91FF90EF90DF90CF90089542
:100590004095C423E5CFEF92FF920F931F93CF9323
:1005A000DF937B01C42FD22F82950E944E0240E040
:1005B00068E270E082E00E94530041E068E270E08F
:1005C00080E00E9453008FE891E00197F1F700C0AE
:1005D0000000DD2371F0D130C1F4DE2D8701802FC2
:1005E0008D1B8C1794F40E948402F80181938F0173
:1005F000F6CFC1500C2E000CDD0BC7FF19C040E038
:1006000068E270E083E00E94530040E068E270E03E
:1006100080E00E9453008FE891E00197F1F700C05D
:100620000000DF91CF911F910F91FF90EF900895FF
:10063000F701EC0FFD1F80810E944E022197DDCF54
:1006400066E270E081E00C94660020E00C94CB023E
:1006500021E00C94CB020E94FE000E94DB000E946D
:10066000DE0085E091E00E94E4002FEF87EA91E64A
:10067000215080409040E1F700C000000E94DB0064
:100680000E94380285E00E947E01809103019091D2
:1006900004010E94D801809316012FEF83E294EFAA
:1006A000215080409040E1F700C0000083E00E94AC
:1006B0007E012FEF83E294EF215080409040E1F7DC
:1006C00000C0000084E00E947E01FFCFF894FFCFBD
:1006D000053500D203546869732069732061207462
:0606E000657374210000A7
:00000001FF
