:100000000C944D000C946A000C946A000C946A00E5
:100010000C946A000C946A000C946A000C946A00B8
:100020000C946A000C946A000C946A000C946A00A8
:100030000C946A000C946A000C946A000C946A0098
:100040000C94F4020C946A000C946A000C946A00FC
:100050000C946A000C946A000C946A000C946A0078
:100060000C946A000C946A00204D487A2000464D9A
:1000700020004155544F205343414E2020004D4114
:100080004E55414C205343414E002D2D2041565298
:1000900020524144494F202D2D0011241FBECFEF87
:1000A000D8E0DEBFCDBF11E0A0E0B1E0E6E8FAE0C5
:1000B00002C005900D92AA30B107D9F721E0AAE05D
:1000C000B1E001C01D92A531B207E1F70E94EB0338
:1000D0000C9441050C940000FB0121E030E0B901D3
:1000E00002C0660F771F8A95E2F7CB01908141111C
:1000F00004C08095892380830895892BFCCF70E00C
:1001000002C0759567958A95E2F7862F81700895EC
:100110005B9808955B9A0895CF93DF93C82FD62FED
:100120006623E1F15A9AC7FF3BC05F9AC6FF3AC007
:100130005E9AC5FF39C05D9AC4FF38C05C9A00C0A2
:100140000E948A0082E08A95F1F700C00E94880030
:10015000C3FF2EC05F9AC2FF2DC05E9AC1FF2CC0A4
:100160005D9AC0FF2BC05C9A00C00E948A0092E09A
:100170009A95F1F700C00E9488005F9A5E9A5D9A96
:100180005C9AD1111DC0C430D8F48FE999E1019770
:10019000F1F700C00000DF91CF9108955A98C3CFC6
:1001A0005F98C4CF5E98C5CF5D98C6CF5C98C7CF27
:1001B0005F98D1CF5E98D2CF5D98D3CF5C98D4CFE3
:1001C00095ED9A95F1F7E6CF60E00C948C0080589D
:1001D0000C94E400611103C080580C94E400805436
:1001E000FCCF81E00C94E40082E00C94E40061E038
:1001F0000C948C00CF93DF93EC018991811103C0A3
:10020000DF91CF9108950E94F700F7CFCF93DF934E
:10021000EC01FE0184912196811103C0DF91CF9101
:1002200008950E94F700F5CF539A529A579A569A1A
:10023000559A549A0E9488005A985F9A5E9A5D9ADD
:100240005C9A8FE59AEE0197F1F700C000005F9885
:100250005E9800C00E948A0092E09A95F1F700C073
:100260000E9488008FE090E40197F1F700C0000041
:100270000E948A0092E09A95F1F700C00E948800DF
:100280008FE891E00197F1F700C000000E948A001A
:1002900092E09A95F1F700C00E94880085ED8A955A
:1002A000F1F700005C9800C00E948A0092E09A95E5
:1002B000F1F700C00E94880085ED8A95F1F70000F3
:1002C0005C9800C00E948A0092E09A95F1F700C005
:1002D0000E94880082E08A95F1F700C05F9A00C012
:1002E0000E948A0092E09A95F1F700C00E9488006F
:1002F00085ED8A95F1F7000088E00E94E4000E94F5
:10030000F10086E00E94E4008CE00C94E400389A4E
:100310003998419A3A9A3B9A43984298409A87EC86
:1003200090E00197F1F700C00000409887EC90E062
:100330000197F1F700C0000008950F931F93CF932A
:10034000DF93D0E0C0E0082F10E0A8010C2E02C01F
:10035000559547950A94E2F7417068E270E083E0B2
:100360000E946C0041E068E270E082E00E946C0054
:1003700087EC90E00197F1F700C0000040E068E2F0
:1003800070E082E00E946C0087EC90E00197F1F74A
:1003900000C000002196C830D105B9F6DF91CF9199
:1003A0001F910F910895CF92DF92EF92FF920F93DA
:1003B0001F93CF9307E010E0C0E0C12CD12C760151
:1003C000C39441E068E270E082E00E946C0087EC38
:1003D00090E00197F1F700C0000066B181E00E9453
:1003E0007F00B701A601002E04C0440F551F661FF1
:1003F000771F0A94D2F78823C9F0C42B40E068E243
:1004000070E082E00E946C0087EC90E00197F1F7C9
:1004100000C0000001501109A0F68C2FCF911F9150
:100420000F91FF90EF90DF90CF9008954095C423F7
:10043000E5CFEF92FF920F931F93CF93DF937B0152
:10044000C42FD22F82950E949D0140E068E270E0A7
:1004500082E00E946C0041E068E270E080E00E946F
:100460006C0087EC90E00197F1F700C00000DD23FD
:1004700071F0D130C1F4DE2D8701802F8D1B8C17D8
:1004800094F40E94D301F80181938F01F6CFC150FB
:100490000C2E000CDD0BC7FF19C040E068E270E0D5
:1004A00083E00E946C0040E068E270E080E00E941F
:1004B0006C0087EC90E00197F1F700C00000DF913D
:1004C000CF911F910F91FF90EF900895F701EC0FDE
:1004D000FD1F80810E949D012197DDCF66B181E0E3
:1004E0000C947F0020E00C94190221E00C94190276
:1004F000E2E1F1E0108211821282EFE0F1E080E1AE
:1005000080838183828308958330B9F180F48130C0
:1005100081F1823041F143E062E171E082E80E94C2
:10052000720243E06FE071E082E90C947202843061
:1005300041F1853081F780930001809112018F7124
:100540008A618093120180910F018E7F8260809377
:100550000F01809110018F7780648093100180914A
:100560001101806203C0809111018F778093110186
:10057000D2CF809111018068F9CF809111018F7ED7
:10058000F5CF809111018061F1CF209100012530DC
:10059000F1F485599F4F909313018093140143E028
:1005A00062E171E082E80E9472022FEF89EF90E031
:1005B000215080409040E1F700C0000066B184E027
:1005C0000E947F0091E0811190E0892F089591E0D1
:1005D000FCCFEEE6F0E080818160808386E086BD1E
:1005E00085B5836085BD08951F920F920FB60F9257
:1005F00011248F939F9380910C0190910D0101968E
:1006000090930D0180930C0186B58A5F86BD9F9102
:100610008F910F900FBE0F901F901895EF92FF9241
:100620000F931F93CF93DF93CDB7DEB72A970FB603
:10063000F894DEBF0FBECDBF8B016AE070E00E9470
:10064000E9047C0190E080E02AE0AE014F5F5F4F5B
:100650000E940F05BE016F5F7F4FC8010E94080511
:1006600063E071E0C8010E94FD04B70190E080E002
:100670002AE0AE014F5F5F4F0E940F05BE016F5F22
:100680007F4FC8010E94FD042A960FB6F894DEBF82
:100690000FBECDBFDF91CF911F910F91FF90EF90D3
:1006A0000895CF93DF93CDB7DEB72A970FB6F894AE
:1006B000DEBF0FBECDBF0E94F4008091010190917A
:1006C0000201BE016F5F7F4F0E940E038EE690E035
:1006D0000E940601CE0101960E94FA0088E690E091
:1006E0000E94060166B185E00E947F0060E08111F2
:1006F00026C08DE00E94EA008BE50E94F70080E0B2
:100700000E94F7008DE50E94F70080910E0161E0E4
:100710008130E9F48DE00E94EA008BE50E94F70049
:1007200081E00E94F7008DE50E94F7002A960FB63F
:10073000F894DEBF0FBECDBFDF91CF9108958DE05D
:100740000E94EA0085E091E00E94FA00DECF8DE091
:100750000E94EA0085E091E00E94FA00E7CF80E481
:100760000E94E4008EE00E94F70089E00E94F700FA
:100770008FE00E94F70089E00E94F70089E10E9463
:10078000F7008BE10E94F70083E00E94F70080E011
:100790000E94F70080E00E94E70088E40E94E400E5
:1007A00081E10E94F70085E10E94F70085E10E9447
:1007B000F7008EE00E94F70084E00E94F70084E0DA
:1007C0000E94F70084E00E94F70080E00E94F7009A
:1007D00080E00C94E7000E9414010E94F1000E9446
:1007E000F4000E94AF033C98449A3D98459A2098A3
:1007F000289A2198299A22982A9A0E94E9027894A4
:100800008AE890E00E9406012FEF87EA91E62150E6
:1008100080409040E1F700C000000E94F1000E947B
:10082000870185E00E94840280910101909102017C
:100830000E94C50280930E01C0E00BE613E088E33E
:10084000E82E84E0F82ED1E0189912C0C13009F0EA
:1008500062C010920E0180910E018823E9F18FEFA2
:1008600091EE24E0815090402040E1F700C000006C
:10087000199913C0C13009F08AC010920E018091FD
:100880000E01882309F464C08FEF91EE24E08150BB
:1008900090402040E1F700C000001A990AC0CD271F
:1008A0008FEF93EC29E0815090402040E1F700C0A9
:1008B000000061E080E0C11187C00E94EA008EE77D
:1008C00090E00E9406010E9451038FE99FE001978A
:1008D000F1F700C00000B8CF8091010190910201B2
:1008E0000196909302018093010180910101909102
:1008F00002018833944020F010930201009301011B
:1009000080910101909102010E94C50280930E0125
:100910000E945103A0CF80910101909102010196A4
:100920009093020180930101809101019091020155
:100930008833944020F010930201009301018091CC
:100940000101909102010E94C50280930E0187CFA0
:10095000809101019091020101979093020180938F
:10096000010180910101909102018C36934020F4A5
:10097000F0920201E0920101809101019091020147
:100980000E94C50280930E010E94510378CF80918E
:10099000010190910201019790930201809301015E
:1009A00080910101909102018C36934020F4F092E5
:1009B0000201E092010180910101909102010E94E7
:1009C000C50280930E0160CF0E94EA0082E790E0AA
:1009D00078CFAA1BBB1B51E107C0AA1FBB1FA617DC
:1009E000B70710F0A61BB70B881F991F5A95A9F7D8
:1009F00080959095BC01CD010895FB01DC010D901F
:100A00000020E9F7119701900D920020E1F7089579
:100A1000FB01DC0101900D920020E1F70895BB2756
:100A2000FA01A62F6217710581059105330B30FB82
:100A300066F0AA27660F771F881F991FAA1FA217A3
:100A400010F0A21B63953850A9F7A05DAA3308F0F7
:100A5000A95DA19336F7B111B1931082CA010C942C
:100A60003105DC01FC01672F71917723E1F73297A3
:100A700004C07C916D9370836291AE17BF07C8F379
:060A80000895F894FFCF79
:0A0A860005F5032E005B205D000063
:00000001FF
