:100000000C9452000C946F000C946F000C946F00D1
:100010000C946F000C946F000C946F000C946F00A4
:100020000C946F000C946F000C946F000C946F0094
:100030000C946F000C946F000C946F000C946F0084
:100040000C9465030C946F000C946F000C946F007B
:100050000C946F000C946F000C946F000C946F0064
:100060000C946F000C946F00204B487A2000414D97
:100070002000204D487A2000464D20004155544F25
:10008000205343414E2020004D414E55414C2053BA
:1000900043414E002D2D2041565220524144494F9C
:1000A000202D2D0011241FBECFEFD8E0DEBFCDBF25
:1000B00011E0A0E0B1E0E4EAFBE002C005900D929F
:1000C000AC30B107D9F721E0ACE0B1E001C01D923E
:1000D000A731B207E1F70E9476040C94D0050C9486
:1000E0000000FB0121E030E0B90102C0660F771F7C
:1000F0008A95E2F7CB019081411104C08095892354
:1001000080830895892BFCCFFB01208130E0A90179
:1001100002C0559547958A95E2F7CA018170089506
:100120005B9808955B9A0895CF93DF93C82FD62FDD
:100130006623E1F15A9AC7FF3BC05F9AC6FF3AC0F7
:100140005E9AC5FF39C05D9AC4FF38C05C9A00C092
:100150000E94920082E08A95F1F700C00E94900010
:10016000C3FF2EC05F9AC2FF2DC05E9AC1FF2CC094
:100170005D9AC0FF2BC05C9A00C00E94920092E082
:100180009A95F1F700C00E9490005F9A5E9A5D9A7E
:100190005C9AD1111DC0C430D8F48FE999E1019760
:1001A000F1F700C00000DF91CF9108955A98C3CFB6
:1001B0005F98C4CF5E98C5CF5D98C6CF5C98C7CF17
:1001C0005F98D1CF5E98D2CF5D98D3CF5C98D4CFD3
:1001D00095ED9A95F1F7E6CF60E00C949400805885
:1001E0000C94EC00611103C080580C94EC00805416
:1001F000FCCF81E00C94EC0082E00C94EC0061E018
:100200000C949400CF93DF93EC018991811103C08A
:10021000DF91CF9108950E94FF00F7CFCF93DF9336
:10022000EC01FE0184912196811103C0DF91CF91F1
:1002300008950E94FF00F5CF539A529A579A569A02
:10024000559A549A0E9490005A985F9A5E9A5D9AC5
:100250005C9A8FE59AEE0197F1F700C000005F9875
:100260005E9800C00E94920092E09A95F1F700C05B
:100270000E9490008FE090E40197F1F700C0000029
:100280000E94920092E09A95F1F700C00E949000BF
:100290008FE891E00197F1F700C000000E94920002
:1002A00092E09A95F1F700C00E94900085ED8A9542
:1002B000F1F700005C9800C00E94920092E09A95CD
:1002C000F1F700C00E94900085ED8A95F1F70000DB
:1002D0005C9800C00E94920092E09A95F1F700C0ED
:1002E0000E94900082E08A95F1F700C05F9A00C0FA
:1002F0000E94920092E09A95F1F700C00E9490004F
:1003000085ED8A95F1F7000088E00E94EC000E94DC
:10031000F90086E00E94EC008CE00C94EC00389A26
:100320003998419A3A9A3B9A43984298409A87EC76
:1003300090E00197F1F700C00000409887EC90E052
:100340000197F1F700C0000008950F931F93CF931A
:10035000DF93D0E0C0E0082F10E0A8010C2E02C00F
:10036000559547950A94E2F7417068E270E083E0A2
:100370000E94710041E068E270E082E00E9471003A
:1003800087EC90E00197F1F700C0000040E068E2E0
:1003900070E082E00E94710087EC90E00197F1F735
:1003A00000C000002196C830D105B9F6DF91CF9189
:1003B0001F910F910895CF92DF92EF92FF920F93CA
:1003C0001F93CF9307E010E0C0E0C12CD12C760141
:1003D000C39441E068E270E082E00E94710087EC23
:1003E00090E00197F1F700C0000066E270E081E064
:1003F0000E948400B701A601002E04C0440F551FBF
:10040000661F771F0A94D2F78823C9F0C42B40E0F7
:1004100068E270E082E00E94710087EC90E0019752
:10042000F1F700C000000150110998F68C2FCF9110
:100430001F910F91FF90EF90DF90CF90089540951E
:10044000C423E5CFEF92FF920F931F93CF93DF93D7
:100450007B01C42FD22F82950E94A50140E068E263
:1004600070E082E00E94710041E068E270E080E0AC
:100470000E94710087EC90E00197F1F700C0000046
:10048000DD2371F0D130C1F4DE2D8701802F8D1B6B
:100490008C1794F40E94DB01F80181938F01F6CF51
:1004A000C1500C2E000CDD0BC7FF19C040E068E204
:1004B00070E083E00E94710040E068E270E080E05C
:1004C0000E94710087EC90E00197F1F700C00000F6
:1004D000DF91CF911F910F91FF90EF900895F70159
:1004E000EC0FFD1F80810E94A5012197DDCF66E200
:1004F00070E081E00C94840020E00C94220221E062
:100500000C94220263E270E080E00E948400882361
:10051000E9F063E270E081E00E948400882329F121
:1005200063E270E082E00E94840081110DC08FE3DD
:100530009CE90197F1F700C0000063E270E082E0FF
:100540000E948400882301F180E008958FE39CE9F4
:100550000197F1F700C0000063E270E080E00E94C4
:1005600084008111D6CF81E008958FE39CE9019743
:10057000F1F700C0000063E270E081E00E948400B7
:100580008111CECF82E0089583E00895E4E1F1E0A7
:10059000108211821282E1E1F1E080E180838183A7
:1005A000828308958330C1F180F4813089F18230F3
:1005B00049F143E064E171E082E80E947C0243E09B
:1005C00061E171E082E90C947C02853069F140F1CF
:1005D000863079F780930001809114018D788868C6
:1005E00080931401809111018D7F816080931101AE
:1005F000809112018F7B806880931201809113019A
:100600008F7D03C0809113018F7780931301D1CF29
:10061000809113018068F9CF809113018F7EF5CF0F
:10062000809113018061F1CF8093000180911401CA
:100630008F718A6180931401809111018E7F826095
:1006400080931101809112018F7780648093120151
:10065000809113018062D9CF20910001253021F0D3
:10066000263009F191E01DC085599F4F90931501E7
:100670008093160143E064E171E082E80E947C020D
:100680002FEF89EF90E0215080409040E1F700C0CB
:10069000000066E270E084E00E94840091E0811135
:1006A00090E0892F08958D9624E0880F991F2A9550
:1006B000E1F7DCCFEEE6F0E080818160808386E0C8
:1006C00086BD85B5836085BD08951F920F920FB6D4
:1006D0000F9211248F939F9380910E0190910F019F
:1006E000019690930F0180930E0186B58A5F86BDB7
:1006F0009F918F910F900FBE0F901F901895EF92C2
:10070000FF920F931F93CF93DF93CDB7DEB72A9756
:100710000FB6F894DEBF0FBECDBF8B016AE070E06C
:100720000E9478057C0190E080E02AE0AE014F5FF6
:100730005F4F0E949E05BE016F5F7F4FC8010E9400
:10074000970565E071E0C8010E948C05B70190E053
:1007500080E02AE0AE014F5F5F4F0E949E05BE0120
:100760006F5F7F4FC8010E948C052A960FB6F894E0
:10077000DEBF0FBECDBFDF91CF911F910F91FF90D4
:10078000EF900895CF93DF93CDB7DEB72A970FB6DA
:10079000F894DEBF0FBECDBF0E94FC008091000127
:1007A000853009F043C08091030190910401BE019E
:1007B0006F5F7F4F0E947F0388E790E00E940E01E9
:1007C000CE0101960E94020182E790E00E940E0194
:1007D00066E270E085E00E94840060E081113AC02A
:1007E0008DE00E94F2008BE50E94FF0080E00E94F5
:1007F000FF008DE50E94FF008091100161E08130D3
:1008000089F58DE00E94F2008BE50E94FF0081E0F7
:100810000E94FF008DE50E94FF002A960FB6F89413
:10082000DEBF0FBECDBFDF91CF9108958091010152
:1008300090910201BE016F5F7F4F0E947F038EE6A1
:1008400090E00E940E01CE0101960E94020188E60E
:1008500090E0BCCF8DE00E94F20087E091E00E9422
:100860000201CACF8DE00E94F20087E091E00E9471
:100870000201D3CF80E40E94EC008EE00E94FF00D2
:1008800089E00E94FF008FE00E94FF0089E00E9443
:10089000FF0089E10E94FF008BE10E94FF0083E0DE
:1008A0000E94FF0080E00E94FF0080E00E94EF00B5
:1008B00088E40E94EC0081E10E94FF0085E10E9433
:1008C000FF0085E10E94FF008EE00E94FF0084E0AF
:1008D0000E94FF0084E00E94FF0084E00E94FF006D
:1008E00080E00E94FF0080E00C94EF000E941C0159
:1008F0000E94F9000E94FC000E943A043C98449A2D
:100900003D98459A2098289A2198299A22982A9ABF
:100910000E945A03789484E990E00E940E012FEF20
:1009200087EA91E6215080409040E1F700C0000046
:100930000E94F9000E948F0185E00E94D2028091FE
:100940000301909104010E942C0380931001C0E0E8
:100950000BE613E088E3E82E84E0F82ED1E00E9455
:100960008202813009F05AC0C13009F057C010929C
:1009700010010E94C20380911001882391F10E940E
:100980008202823009F08BC0C13009F088C0109219
:1009900010010E94C20380911001882309F462C0F3
:1009A0000E948202833009F4CD270E94C20361E0D5
:1009B00080E0C11198C00E94F20088E890E00E9497
:1009C0000E018FEF93EC29E0815090402040E1F739
:1009D00000C000008FE39CE90197F1F700C0000020
:1009E000BECF809103019091040101969093040180
:1009F0008093030180910301909104018833944016
:100A000020F0109304010093030180910301909161
:100A100004010E942C0380931001ADCF0E9482023A
:100A2000813009F0ACCFC111AACF80910301909120
:100A300004010196909304018093030180910301C6
:100A4000909104018833944020F0109304010093A6
:100A5000030180910301909104010E942C03809373
:100A600010018DCF80910301909104010197909323
:100A700004018093030180910301909104018C365D
:100A8000934020F4F0920401E0920301809103016D
:100A9000909104010E942C03809310017ACF0E9450
:100AA0008202823009F07CCFC1117ACF809103019C
:100AB0009091040101979093040180930301809128
:100AC0000301909104018C36934020F4F0920401CC
:100AD000E092030180910301909104010E942C0394
:100AE000809310015DCF0E94F2008CE790E067CF09
:100AF000AA1BBB1B51E107C0AA1FBB1FA617B70744
:100B000010F0A61BB70B881F991F5A95A9F780955F
:100B10009095BC01CD010895FB01DC010D900020F2
:100B2000E9F7119701900D920020E1F70895FB017C
:100B3000DC0101900D920020E1F70895BB27FA0136
:100B4000A62F6217710581059105330B30FB66F006
:100B5000AA27660F771F881F991FAA1FA21710F0D8
:100B6000A21B63953850A9F7A05DAA3308F0A95DD0
:100B7000A19336F7B111B1931082CA010C94C0054C
:100B8000DC01FC01672F71917723E1F7329704C0F4
:100B90007C916D9370836291AE17BF07C8F308957F
:040BA000F894FFCFF7
:0C0BA400054900D2032E005B205D00001C
:00000001FF
