:100000000C944D000C946A000C946A000C946A00E5
:100010000C946A000C946A000C946A000C946A00B8
:100020000C946A000C946A000C946A000C946A00A8
:100030000C946A000C946A000C946A000C946A0098
:100040000C943E030C946A000C946A000C946A00B1
:100050000C946A000C946A000C946A000C946A0078
:100060000C946A000C946A00204D487A2000464D9A
:1000700020004155544F205343414E2020004D4114
:100080004E55414C205343414E002D2D2041565298
:1000900020524144494F202D2D0011241FBECFEF87
:1000A000D8E0DEBFCDBF11E0A0E0B1E0E4E2FBE0CC
:1000B00002C005900D92AA30B107D9F721E0AAE05D
:1000C000B1E001C01D92A531B207E1F70E943604EC
:1000D0000C9490050C940000FB0121E030E0B90184
:1000E00002C0660F771F8A95E2F7CB01908141111C
:1000F00004C08095892380830895892BFCCFFB0160
:10010000208130E0A90102C0559547958A95E2F714
:10011000CA01817008955B9808955B9A0895CF9302
:10012000DF93C82FD62F6623E1F15A9AC7FF3BC051
:100130005F9AC6FF3AC05E9AC5FF39C05D9AC4FF98
:1001400038C05C9A00C00E948D0082E08A95F1F769
:1001500000C00E948B00C3FF2EC05F9AC2FF2DC05B
:100160005E9AC1FF2CC05D9AC0FF2BC05C9A00C094
:100170000E948D0092E09A95F1F700C00E948B00DA
:100180005F9A5E9A5D9A5C9AD1111DC0C430D8F412
:100190008FE999E10197F1F700C00000DF91CF915D
:1001A00008955A98C3CF5F98C4CF5E98C5CF5D9825
:1001B000C6CF5C98C7CF5F98D1CF5E98D2CF5D98FD
:1001C000D3CF5C98D4CF95ED9A95F1F7E6CF60E068
:1001D0000C948F0080580C94E700611103C0805884
:1001E0000C94E7008054FCCF81E00C94E70082E09F
:1001F0000C94E70061E00C948F00CF93DF93EC0147
:100200008991811103C0DF91CF9108950E94FA0076
:10021000F7CFCF93DF93EC01FE01849121968111FA
:1002200003C0DF91CF9108950E94FA00F5CF539A51
:10023000529A579A569A559A549A0E948B005A98F5
:100240005F9A5E9A5D9A5C9A8FE59AEE0197F1F754
:1002500000C000005F985E9800C00E948D0092E090
:100260009A95F1F700C00E948B008FE090E401970F
:10027000F1F700C000000E948D0092E09A95F1F71E
:1002800000C00E948B008FE891E00197F1F700C059
:1002900000000E948D0092E09A95F1F700C00E9444
:1002A0008B0085ED8A95F1F700005C9800C00E94F4
:1002B0008D0092E09A95F1F700C00E948B0085EDC9
:1002C0008A95F1F700005C9800C00E948D0092E0D2
:1002D0009A95F1F700C00E948B0082E08A95F1F7B1
:1002E00000C05F9A00C00E948D0092E09A95F1F7DD
:1002F00000C00E948B0085ED8A95F1F7000088E030
:100300000E94E7000E94F40086E00E94E7008CE073
:100310000C94E700389A3998419A3A9A3B9A439854
:100320004298409A87EC90E00197F1F700C00000F6
:10033000409887EC90E00197F1F700C00000089525
:100340000F931F93CF93DF93D0E0C0E0082F10E00E
:10035000A8010C2E02C0559547950A94E2F741700A
:1003600068E270E083E00E946C0041E068E270E0C7
:1003700082E00E946C0087EC90E00197F1F700C0EA
:10038000000040E068E270E082E00E946C0087ECD0
:1003900090E00197F1F700C000002196C830D10528
:1003A000B9F6DF91CF911F910F910895CF92DF920F
:1003B000EF92FF920F931F93CF9307E010E0C0E0FE
:1003C000C12CD12C7601C39441E068E270E082E058
:1003D0000E946C0087EC90E00197F1F700C00000EC
:1003E00066E270E081E00E947F00B701A601002E66
:1003F00004C0440F551F661F771F0A94D2F7882345
:10040000C9F0C42B40E068E270E082E00E946C001A
:1004100087EC90E00197F1F700C00000015011094E
:1004200098F68C2FCF911F910F91FF90EF90DF9056
:10043000CF9008954095C423E5CFEF92FF920F939C
:100440001F93CF93DF937B01C42FD22F82950E94FD
:10045000A00140E068E270E082E00E946C0041E0B0
:1004600068E270E080E00E946C0087EC90E0019709
:10047000F1F700C00000DD2371F0D130C1F4DE2DB2
:100480008701802F8D1B8C1794F40E94D601F801F0
:1004900081938F01F6CFC1500C2E000CDD0BC7FFEE
:1004A00019C040E068E270E083E00E946C0040E028
:1004B00068E270E080E00E946C0087EC90E00197B9
:1004C000F1F700C00000DF91CF911F910F91FF90D5
:1004D000EF900895F701EC0FFD1F80810E94A001AD
:1004E0002197DDCF66E270E081E00C947F0020E090
:1004F0000C941D0221E00C941D0263E270E080E088
:100500000E947F008823E9F063E270E081E00E94AE
:100510007F00882329F163E270E082E00E947F007F
:1005200081110DC08FE39CE90197F1F700C0000035
:1005300063E270E082E00E947F00882301F180E0A6
:1005400008958FE39CE90197F1F700C0000063E292
:1005500070E080E00E947F008111D6CF81E0089595
:100560008FE39CE90197F1F700C0000063E270E0BF
:1005700081E00E947F008111CECF82E0089583E068
:100580000895E2E1F1E0108211821282EFE0F1E0E1
:1005900080E180838183828308958330B9F180F480
:1005A000813081F1823041F143E062E171E082E823
:1005B0000E94770243E06FE071E082E90C947702D9
:1005C000843041F1853081F78093000180911201E0
:1005D0008F718A618093120180910F018E7F8260FA
:1005E00080930F01809110018F77806480931001B8
:1005F00080911101806203C0809111018F778093F7
:100600001101D2CF809111018068F9CF8091110141
:100610008F7EF5CF809111018061F1CF2091000193
:100620002530F9F485599F4F90931301809314015D
:1006300043E062E171E082E80E9477022FEF89EFE8
:1006400090E0215080409040E1F700C0000066E259
:1006500070E084E00E947F0091E0811190E0892F9A
:10066000089591E0FCCFEEE6F0E080818160808328
:1006700086E086BD85B5836085BD08951F920F9283
:100680000FB60F9211248F939F9380910C0190913C
:100690000D01019690930D0180930C0186B58A5F40
:1006A00086BD9F918F910F900FBE0F901F90189550
:1006B000EF92FF920F931F93CF93DF93CDB7DEB7E7
:1006C0002A970FB6F894DEBF0FBECDBF8B016AE04C
:1006D00070E00E9438057C0190E080E02AE0AE01E5
:1006E0004F5F5F4F0E945E05BE016F5F7F4FC80185
:1006F0000E94570563E071E0C8010E944C05B701F4
:1007000090E080E02AE0AE014F5F5F4F0E945E05FF
:10071000BE016F5F7F4FC8010E944C052A960FB63D
:10072000F894DEBF0FBECDBFDF91CF911F910F9127
:10073000FF90EF900895CF93DF93CDB7DEB72A9760
:100740000FB6F894DEBF0FBECDBF0E94F7008091B8
:10075000010190910201BE016F5F7F4F0E9458031B
:100760008EE690E00E940901CE0101960E94FD00F4
:1007700088E690E00E94090166E270E085E00E9450
:100780007F0060E0811126C08DE00E94ED008BE5C6
:100790000E94FA0080E00E94FA008DE50E94FA00B3
:1007A00080910E0161E08130E9F48DE00E94ED005E
:1007B0008BE50E94FA0081E00E94FA008DE50E941C
:1007C000FA002A960FB6F894DEBF0FBECDBFDF91B8
:1007D000CF9108958DE00E94ED0085E091E00E94A8
:1007E000FD00DECF8DE00E94ED0085E091E00E94EB
:1007F000FD00E7CF80E40E94E7008EE00E94FA004F
:1008000089E00E94FA008FE00E94FA0089E00E94CD
:10081000FA0089E10E94FA008BE10E94FA0083E06D
:100820000E94FA0080E00E94FA0080E00E94EA0044
:1008300088E40E94E70081E10E94FA0085E10E94BD
:10084000FA0085E10E94FA008EE00E94FA0084E03E
:100850000E94FA0084E00E94FA0084E00E94FA00FC
:1008600080E00E94FA0080E00C94EA000E941701E8
:100870000E94F4000E94F7000E94FA033C98449AF8
:100880003D98459A2098289A2198299A22982A9A40
:100890000E94330378948AE890E00E9409012FEFC8
:1008A00087EA91E6215080409040E1F700C00000C7
:1008B0000E94F4000E948A0185E00E94CD0280918E
:1008C0000101909102010E940E0380930E01C0E08D
:1008D0000BE613E088E3E82E84E0F82ED1E00E94D6
:1008E0007D02813009F058C0C13009F055C0109226
:1008F0000E0180910E01882381F10E947D028230D9
:1009000009F08DC0C13009F08AC010920E018091AB
:100910000E01882309F464C00E947D02833009F42B
:10092000CD2761E080E0C1119EC00E94ED008EE7FE
:1009300090E00E9409018FEF93EC29E081509040F4
:100940002040E1F700C000000E949B038FE99FE078
:100950000197F1F700C00000C2CF80910101909192
:10096000020101969093020180930101809101019F
:10097000909102018833944020F01093020100937B
:10098000010180910101909102010E940E03809368
:100990000E010E949B03ADCF0E947D02813009F0C1
:1009A000ACCFC111AACF80910101909102010196B3
:1009B00090930201809301018091010190910201C5
:1009C0008833944020F0109302010093010180913C
:1009D0000101909102010E940E0380930E018DCFC0
:1009E00080910101909102010197909302018093FF
:1009F000010180910101909102018C36934020F415
:100A0000F0920201E09201018091010190910201B6
:100A10000E940E0380930E010E949B0378CF0E94D8
:100A20007D02823009F078CFC11176CF809101012B
:100A300090910201019790930201809301018091AE
:100A40000101909102018C36934020F4F092020152
:100A5000E092010180910101909102010E940E0338
:100A600080930E0159CF0E94ED0082E790E061CFA4
:100A7000AA1BBB1B51E107C0AA1FBB1FA617B707C4
:100A800010F0A61BB70B881F991F5A95A9F78095E0
:100A90009095BC01CD010895FB01DC010D90002073
:100AA000E9F7119701900D920020E1F70895FB01FD
:100AB000DC0101900D920020E1F70895BB27FA01B7
:100AC000A62F6217710581059105330B30FB66F087
:100AD000AA27660F771F881F991FAA1FA21710F059
:100AE000A21B63953850A9F7A05DAA3308F0A95D51
:100AF000A19336F7B111B1931082CA010C9480050D
:100B0000DC01FC01672F71917723E1F7329704C074
:100B10007C916D9370836291AE17BF07C8F30895FF
:040B2000F894FFCF77
:0A0B240005D2032E005B205D0000E7
:00000001FF
